{
  "transactions": [
    {
      "hash": "0xf1ec8a67b94e2894d3c5d223f2a416f48a963d983646e48cbfaed5efbeae372e",
      "transactionType": "CALL",
      "contractName": null,
      "contractAddress": "0xa5ce3b6dc60cc295f4c8bb17016d3524322b25c0",
      "function": "register((address,string))",
      "arguments": [
        "(0x221bA23331E5395F2018eDafc2E0E9fF2Acb1aDa, First Merchant)"
      ],
      "transaction": {
        "from": "0x0700cc6268c9f33c4328530b231271d7fbefb4fa",
        "to": "0xa5ce3b6dc60cc295f4c8bb17016d3524322b25c0",
        "gas": "0x685fe",
        "value": "0x0",
        "input": "0x4ce564150000000000000000000000000000000000000000000000000000000000000020000000000000000000000000221ba23331e5395f2018edafc2e0e9ff2acb1ada0000000000000000000000000000000000000000000000000000000000000040000000000000000000000000000000000000000000000000000000000000000e4669727374204d65726368616e74000000000000000000000000000000000000",
        "nonce": "0x2",
        "chainId": "0x1404"
      },
      "additionalContracts": [
        {
          "transactionType": "CREATE",
          "address": "0xf663d81d07924a1cf4b328c2540eeff4afc51597",
          "initCode": "0x608060405234801561000f575f5ffd5b5060405161045f38038061045f83398101604081905261002e91610070565b5f80546001600160a01b0319166001600160a01b038416179055600161005482826101c3565b50505061027d565b634e487b7160e01b5f52604160045260245ffd5b5f5f60408385031215610081575f5ffd5b82516001600160a01b0381168114610097575f5ffd5b60208401519092506001600160401b038111156100b2575f5ffd5b8301601f810185136100c2575f5ffd5b80516001600160401b038111156100db576100db61005c565b604051601f8201601f19908116603f011681016001600160401b03811182821017156101095761010961005c565b604052818152828201602001871015610120575f5ffd5b8160208401602083015e5f602083830101528093505050509250929050565b600181811c9082168061015357607f821691505b60208210810361017157634e487b7160e01b5f52602260045260245ffd5b50919050565b601f8211156101be57805f5260205f20601f840160051c8101602085101561019c5750805b601f840160051c820191505b818110156101bb575f81556001016101a8565b50505b505050565b81516001600160401b038111156101dc576101dc61005c565b6101f0816101ea845461013f565b84610177565b6020601f821160018114610222575f831561020b5750848201515b5f19600385901b1c1916600184901b1784556101bb565b5f84815260208120601f198516915b828110156102515787850151825560209485019460019092019101610231565b508482101561026e57868401515f19600387901b60f8161c191681555b50505050600190811b01905550565b6101d58061028a5f395ff3fe608060405234801561000f575f5ffd5b5060043610610034575f3560e01c806306fdde03146100385780638da5cb5b14610056575b5f5ffd5b610040610080565b60405161004d919061010c565b60405180910390f35b5f54610068906001600160a01b031681565b6040516001600160a01b03909116815260200161004d565b6001805461008d90610141565b80601f01602080910402602001604051908101604052809291908181526020018280546100b990610141565b80156101045780601f106100db57610100808354040283529160200191610104565b820191905f5260205f20905b8154815290600101906020018083116100e757829003601f168201915b505050505081565b602081525f82518060208401528060208501604085015e5f604082850101526040601f19601f83011684010191505092915050565b600181811c9082168061015557607f821691505b60208210810361017357634e487b7160e01b5f52602260045260245ffd5b5091905056fea26469706673582212208b45b589f7532cd68dec5eeabaffb7235b9cb229b6a989d6b8533f3a1c218e5964736f6c637828302e382e32382d646576656c6f702e323032352e322e31332b636f6d6d69742e39363462353035320059000000000000000000000000221ba23331e5395f2018edafc2e0e9ff2acb1ada0000000000000000000000000000000000000000000000000000000000000040000000000000000000000000000000000000000000000000000000000000000e4669727374204d65726368616e74000000000000000000000000000000000000"
        }
      ],
      "isFixedGasLimit": false
    }
  ],
  "receipts": [
    {
      "status": "0x1",
      "cumulativeGasUsed": "0x4b90c",
      "logs": [
        {
          "address": "0xa5ce3b6dc60cc295f4c8bb17016d3524322b25c0",
          "topics": [
            "0x937b50829c879b4023686954e9c2395cc202bb5c8fb8d41ae66d6f4742f4b05c"
          ],
          "data": "0x000000000000000000000000f663d81d07924a1cf4b328c2540eeff4afc51597000000000000000000000000221ba23331e5395f2018edafc2e0e9ff2acb1ada0000000000000000000000000000000000000000000000000000000000000060000000000000000000000000000000000000000000000000000000000000000e4669727374204d65726368616e74000000000000000000000000000000000000",
          "blockHash": "0x2d214d9ec700a498a44c409b88580d1a43c5357ccc1b8754efcebe510a0934d2",
          "blockNumber": "0x220ff",
          "blockTimestamp": "0x67b78e44",
          "transactionHash": "0xf1ec8a67b94e2894d3c5d223f2a416f48a963d983646e48cbfaed5efbeae372e",
          "transactionIndex": "0x0",
          "logIndex": "0x0",
          "removed": false
        }
      ],
      "logsBloom": "0x00000000000000000000000000000000000000000000000000000000000000000000000000000000000000000000000000000000400000000000000000002000000000000000000000000000000000000000000000000000000000000000000000000000000000000000000000000000000000000000000000004000000000000000000000000000000000000000000000000000000000000000000000000000000000000000000000000000000000000000000080000000000000000000000000000000000000000000000000000000000000000000000000000000000000004000000000000000000000000000000000000000000000004000000000000000",
      "type": "0x0",
      "transactionHash": "0xf1ec8a67b94e2894d3c5d223f2a416f48a963d983646e48cbfaed5efbeae372e",
      "transactionIndex": "0x0",
      "blockHash": "0x2d214d9ec700a498a44c409b88580d1a43c5357ccc1b8754efcebe510a0934d2",
      "blockNumber": "0x220ff",
      "gasUsed": "0x4b90c",
      "effectiveGasPrice": "0x3b9aca07",
      "from": "0x0700cc6268c9f33c4328530b231271d7fbefb4fa",
      "to": "0xa5ce3b6dc60cc295f4c8bb17016d3524322b25c0",
      "contractAddress": null
    }
  ],
  "libraries": [],
  "pending": [],
  "returns": {},
  "timestamp": 1740082753,
  "chain": 5124,
  "commit": "9530ecd"
}