{
  "transactions": [
    {
      "hash": "0x13f647715fb78f7f7cfac2820dec18b2de16915574f907e2a3324418c8b5d511",
      "transactionType": "CALL",
      "contractName": null,
      "contractAddress": "0x187397d17d970de9eb259cafc3f87a1106cd5a4a",
      "function": "register((address,string))",
      "arguments": [
        "(0x0700Cc6268C9f33C4328530B231271D7FBeFB4fa, Coffee Shop)"
      ],
      "transaction": {
        "from": "0x0700cc6268c9f33c4328530b231271d7fbefb4fa",
        "to": "0x187397d17d970de9eb259cafc3f87a1106cd5a4a",
        "gas": "0x21b313",
        "value": "0x0",
        "input": "0x4ce5641500000000000000000000000000000000000000000000000000000000000000200000000000000000000000000700cc6268c9f33c4328530b231271d7fbefb4fa0000000000000000000000000000000000000000000000000000000000000040000000000000000000000000000000000000000000000000000000000000000b436f666665652053686f70000000000000000000000000000000000000000000",
        "nonce": "0x4",
        "chainId": "0x1404"
      },
      "additionalContracts": [
        {
          "transactionType": "CREATE",
          "address": "0xeade712c7b54399ca82b5abad26355327bb56fdc",
          "initCode": "0x6080604052600480546001600160a01b03191673eeeeeeeeeeeeeeeeeeeeeeeeeeeeeeeeeeeeeeee179055348015610035575f5ffd5b50604051611a25380380611a2583398101604081905261005491610104565b5f80546001600160a01b0319166001600160a01b038516179055600161007a8382610259565b5060028054336001600160a01b0319918216179091556004546001600160a01b039081165f908152600560205260409020805460ff191660019081179091556003805490931693909116929092179055600955506103139050565b80516001600160a01b03811681146100eb575f5ffd5b919050565b634e487b7160e01b5f52604160045260245ffd5b5f5f5f60608486031215610116575f5ffd5b61011f846100d5565b60208501519093506001600160401b0381111561013a575f5ffd5b8401601f8101861361014a575f5ffd5b80516001600160401b03811115610163576101636100f0565b604051601f8201601f19908116603f011681016001600160401b0381118282101715610191576101916100f0565b6040528181528282016020018810156101a8575f5ffd5b8160208401602083015e5f602083830101528094505050506101cc604085016100d5565b90509250925092565b600181811c908216806101e957607f821691505b60208210810361020757634e487b7160e01b5f52602260045260245ffd5b50919050565b601f82111561025457805f5260205f20601f840160051c810160208510156102325750805b601f840160051c820191505b81811015610251575f815560010161023e565b50505b505050565b81516001600160401b03811115610272576102726100f0565b6102868161028084546101d5565b8461020d565b6020601f8211600181146102b8575f83156102a15750848201515b5f19600385901b1c1916600184901b178455610251565b5f84815260208120601f198516915b828110156102e757878501518255602094850194600190920191016102c7565b508482101561030457868401515f19600387901b60f8161c191681555b50505050600190811b01905550565b611705806103205f395ff3fe6080604052600436106100d9575f3560e01c8063a555a6371161007c578063b9db15b411610057578063b9db15b414610220578063c69b854d1461024c578063e74dc11c1461025f578063f2f4eb261461027d575f5ffd5b8063a555a637146101cf578063a734f06e146101e2578063b2b1c56c14610201575f5ffd5b80637dc0d1d0116100b75780637dc0d1d01461013b5780637edd19a21461017257806380b2edd814610191578063850a1003146101b0575f5ffd5b806306fdde03146100dd57806358f7a76d146101075780636458df3b1461011c575b5f5ffd5b3480156100e8575f5ffd5b506100f161029c565b6040516100fe9190611118565b60405180910390f35b61011a6101153660046111e1565b610328565b005b348015610127575f5ffd5b5061011a61013636600461125f565b610466565b348015610146575f5ffd5b5060035461015a906001600160a01b031681565b6040516001600160a01b0390911681526020016100fe565b34801561017d575f5ffd5b5061011a61018c3660046112ae565b610528565b34801561019c575f5ffd5b5061011a6101ab3660046112e9565b61057a565b3480156101bb575f5ffd5b5061011a6101ca366004611302565b6105c6565b61011a6101dd36600461137e565b610634565b3480156101ed575f5ffd5b5060045461015a906001600160a01b031681565b34801561020c575f5ffd5b5061011a61021b3660046113fa565b61082c565b34801561022b575f5ffd5b5061023f61023a3660046113fa565b610870565b6040516100fe9190611411565b61011a61025a36600461143f565b610958565b34801561026a575f5ffd5b505f5461015a906001600160a01b031681565b348015610288575f5ffd5b5060025461015a906001600160a01b031681565b600180546102a990611470565b80601f01602080910402602001604051908101604052809291908181526020018280546102d590611470565b80156103205780601f106102f757610100808354040283529160200191610320565b820191905f5260205f20905b81548152906001019060200180831161030357829003601f168201915b505050505081565b610333838383610c4d565b5f61033e8484610e25565b5f8381526007602052604081209192506103588284610ea1565b335f9081526004840160205260408120b0919250906103789060016114bc565b335f90815260048501602052604081208290b190915061039883346114cf565b905080156103ee576103aa3382610fbf565b6103ee5760405162461bcd60e51b815260206004820152601060248201526f19985a5b1959081d1bc81c99599d5b9960821b60448201526064015b60405180910390fd5b6103f8888861106f565b6002546040516302b1df7160e51b81523060048201523360248201523460448201526001600160a01b039091169063563bee20906064015f604051808303815f87803b158015610446575f5ffd5b505af1158015610458573d5f5f3e3d5ffd5b505050505050505050505050565b5f546001600160a01b0316331461048f5760405162461bcd60e51b81526004016103e5906114e2565b8015801561049b575081155b156104b957604051633c55b73760e01b815260040160405180910390fd5b600980545f908152600760208190526040822089815560018082018a90556002820180548a151560ff199182161790915560038301899055928201805490931617909155600581018590556006810184905582549092909161051a83611517565b919050555050505050505050565b5f546001600160a01b031633146105515760405162461bcd60e51b81526004016103e5906114e2565b5f82815260066020526040812060010180548392906105719084906114bc565b90915550505050565b5f546001600160a01b031633146105a35760405162461bcd60e51b81526004016103e5906114e2565b6001600160a01b03165f908152600560205260409020805460ff19166001179055565b5f546001600160a01b031633146105ef5760405162461bcd60e51b81526004016103e5906114e2565b6008545f9081526006602052604090208481556001810184905560028101610618838583611573565b5060088054905f61062883611517565b91905055505050505050565b61063f838383610c4d565b5f61064a8484610e25565b5f8381526007602052604081209192506106648284610ea1565b335f9081526004840160205260408120b0919250906106849060016114bc565b335f908152600485810160205260408083208490b160035490516369475ee760e11b81526001600160a01b038d811693820193909352939450919291169063d28ebdce90602401602060405180830381865afa1580156106e6573d5f5f3e3d5ffd5b505050506040513d601f19601f8201168201806040525081019061070a919061162d565b90508061071f84670de0b6b3a7640000611644565b610729919061165b565b6040516323b872dd60e01b8152336004820152306024820152604481018290529093506001600160a01b038a16906323b872dd906064016020604051808303815f875af115801561077c573d5f5f3e3d5ffd5b505050506040513d601f19601f820116820180604052508101906107a0919061167a565b506107ab888861106f565b5f6107b68285611644565b6002545f546040516302b1df7160e51b81526001600160a01b03918216600482015233602482015260448101849052929350169063563bee20906064015f604051808303815f87803b15801561080a575f5ffd5b505af115801561081c573d5f5f3e3d5ffd5b5050505050505050505050505050565b5f546001600160a01b031633146108555760405162461bcd60e51b81526004016103e5906114e2565b5f90815260076020819052604090912001805460ff19169055565b61089260405180606001604052805f81526020015f8152602001606081525090565b60065f8381526020019081526020015f206040518060600160405290815f8201548152602001600182015481526020016002820180546108d190611470565b80601f01602080910402602001604051908101604052809291908181526020018280546108fd90611470565b80156109485780601f1061091f57610100808354040283529160200191610948565b820191905f5260205f20905b81548152906001019060200180831161092b57829003601f168201915b5050505050815250509050919050565b5f546001600160a01b031633146109815760405162461bcd60e51b81526004016103e5906114e2565b6004546001600160a01b0390811690831603610a70575f6109a360644761165b565b90505f6109b082476114cf565b90506109bc8382610fbf565b610a085760405162461bcd60e51b815260206004820152601960248201527f6661696c656420746f20636f6c6c65637420726576656e75650000000000000060448201526064016103e5565b600254610a1e906001600160a01b031683610fbf565b610a6a5760405162461bcd60e51b815260206004820152601e60248201527f6661696c656420746f207472616e736665722066656520746f20636f7265000060448201526064016103e5565b50505050565b6040516370a0823160e01b81523060048201525f906064906001600160a01b038516906370a0823190602401602060405180830381865afa158015610ab7573d5f5f3e3d5ffd5b505050506040513d601f19601f82011682018060405250810190610adb919061162d565b610ae5919061165b565b6040516370a0823160e01b81523060048201529091505f9082906001600160a01b038616906370a0823190602401602060405180830381865afa158015610b2e573d5f5f3e3d5ffd5b505050506040513d601f19601f82011682018060405250810190610b52919061162d565b610b5c91906114cf565b5f5460405163a9059cbb60e01b81526001600160a01b0391821660048201526024810183905291925085169063a9059cbb906044016020604051808303815f875af1158015610bad573d5f5f3e3d5ffd5b505050506040513d601f19601f82011682018060405250810190610bd1919061167a565b5060025460405163a9059cbb60e01b81526001600160a01b039182166004820152602481018490529085169063a9059cbb906044016020604051808303815f875af1158015610c22573d5f5f3e3d5ffd5b505050506040513d601f19601f82011682018060405250810190610c46919061167a565b5050505050565b8151835114610c9e5760405162461bcd60e51b815260206004820152601d60248201527f496e636f7272656374207472616e73616374696f6e2064657461696c7300000060448201526064016103e5565b5f5b8351811015610d46575f848281518110610cbc57610cbc611695565b602002602001015190505f848381518110610cd957610cd9611695565b602002602001015190508060065f8481526020019081526020015f20600101541015610d3c5760405162461bcd60e51b8152602060048201526012602482015271496e73756666696369656e742073746f636b60701b60448201526064016103e5565b5050600101610ca0565b50805f03610d5357505050565b5f818152600760208190526040909120015460ff16610dab5760405162461bcd60e51b8152602060048201526014602482015273436f75706f6e206973206e6f742061637469766560601b60448201526064016103e5565b5f818152600760208181526040808420338552600481018352908420b0938590529190526003015411610e205760405162461bcd60e51b815260206004820152601a60248201527f436f75706f6e207573616765206c696d6974207265616368656400000000000060448201526064016103e5565b505050565b5f80805b8451811015610e9757838181518110610e4457610e44611695565b602002602001015160065f878481518110610e6157610e61611695565b602002602001015181526020019081526020015f205f0154610e839190611644565b610e8d90836114bc565b9150600101610e29565b5090505b92915050565b60028054835460018501549285015460405163df8bb86d60e01b81523360048201526024810192909252604482019390935260ff909216151560648301525f9182916001600160a01b03169063df8bb86d90608401602060405180830381865afa158015610f11573d5f5f3e3d5ffd5b505050506040513d601f19601f82011682018060405250810190610f35919061167a565b905080610f5557604051633bea5dd760e21b815260040160405180910390fd5b60068401545f9015610f8d578460060154841015610f77578392505050610e9b565b6006850154610f8690856114cf565b9050610fb7565b612710856005015485610fa09190611644565b610faa919061165b565b610fb490856114cf565b90505b949350505050565b5f6001600160a01b0383166110165760405162461bcd60e51b815260206004820152601f60248201527f5a65726f2061646472657373657320617265206e6f7420616c6c6f7765642e0060448201526064016103e5565b5f836001600160a01b0316836040515f6040518083038185875af1925050503d805f811461105f576040519150601f19603f3d011682016040523d82523d5f602084013e611064565b606091505b509095945050505050565b5f5b8251811015610e20575f83828151811061108d5761108d611695565b602002602001015190505f8383815181106110aa576110aa611695565b602002602001015190508060065f8481526020019081526020015f206001015f8282546110d791906114cf565b9091555050600190920191506110719050565b5f81518084528060208401602086015e5f602082860101526020601f19601f83011685010191505092915050565b602081525f61112a60208301846110ea565b9392505050565b634e487b7160e01b5f52604160045260245ffd5b5f82601f830112611154575f5ffd5b813567ffffffffffffffff81111561116e5761116e611131565b8060051b604051601f19603f830116810181811067ffffffffffffffff8211171561119b5761119b611131565b6040529182526020818501810192908101868411156111b8575f5ffd5b6020860192505b838310156111d75782358152602092830192016111bf565b5095945050505050565b5f5f5f606084860312156111f3575f5ffd5b833567ffffffffffffffff811115611209575f5ffd5b61121586828701611145565b935050602084013567ffffffffffffffff811115611231575f5ffd5b61123d86828701611145565b93969395505050506040919091013590565b801515811461125c575f5ffd5b50565b5f5f5f5f5f5f60c08789031215611274575f5ffd5b8635955060208701359450604087013561128d8161124f565b959894975094956060810135955060808101359460a0909101359350915050565b5f5f604083850312156112bf575f5ffd5b50508035926020909101359150565b80356001600160a01b03811681146112e4575f5ffd5b919050565b5f602082840312156112f9575f5ffd5b61112a826112ce565b5f5f5f5f60608587031215611315575f5ffd5b8435935060208501359250604085013567ffffffffffffffff811115611339575f5ffd5b8501601f81018713611349575f5ffd5b803567ffffffffffffffff81111561135f575f5ffd5b876020828401011115611370575f5ffd5b949793965060200194505050565b5f5f5f5f60808587031215611391575f5ffd5b61139a856112ce565b9350602085013567ffffffffffffffff8111156113b5575f5ffd5b6113c187828801611145565b935050604085013567ffffffffffffffff8111156113dd575f5ffd5b6113e987828801611145565b949793965093946060013593505050565b5f6020828403121561140a575f5ffd5b5035919050565b6020815281516020820152602082015160408201525f6040830151606080840152610fb760808401826110ea565b5f5f60408385031215611450575f5ffd5b611459836112ce565b9150611467602084016112ce565b90509250929050565b600181811c9082168061148457607f821691505b6020821081036114a257634e487b7160e01b5f52602260045260245ffd5b50919050565b634e487b7160e01b5f52601160045260245ffd5b80820180821115610e9b57610e9b6114a8565b81810381811115610e9b57610e9b6114a8565b6020808252818101527f4f6e6c792074686520627573696e6573732063616e2063616c6c20746869732e604082015260600190565b5f60018201611528576115286114a8565b5060010190565b601f821115610e2057805f5260205f20601f840160051c810160208510156115545750805b601f840160051c820191505b81811015610c46575f8155600101611560565b67ffffffffffffffff83111561158b5761158b611131565b61159f836115998354611470565b8361152f565b5f601f8411600181146115d0575f85156115b95750838201355b5f19600387901b1c1916600186901b178355610c46565b5f83815260208120601f198716915b828110156115ff57868501358255602094850194600190920191016115df565b508682101561161b575f1960f88860031b161c19848701351681555b505060018560011b0183555050505050565b5f6020828403121561163d575f5ffd5b5051919050565b8082028115828204841417610e9b57610e9b6114a8565b5f8261167557634e487b7160e01b5f52601260045260245ffd5b500490565b5f6020828403121561168a575f5ffd5b815161112a8161124f565b634e487b7160e01b5f52603260045260245ffdfea26469706673582212201e7a05e592baecb0b7f7ca254105dc4d7aadb08dc2d15e77d6960f2d80d9b17764736f6c637828302e382e32382d646576656c6f702e323032352e322e31332b636f6d6d69742e393634623530353200590000000000000000000000000700cc6268c9f33c4328530b231271d7fbefb4fa000000000000000000000000000000000000000000000000000000000000006000000000000000000000000055bdcfbdad3f05e1e2e0ca001749a2e26433e8e2000000000000000000000000000000000000000000000000000000000000000b436f666665652053686f70000000000000000000000000000000000000000000"
        }
      ],
      "isFixedGasLimit": false
    },
    {
      "hash": "0x9b97b99f369bd404679e32e550878c4aabc780c7ab7d72a0f5b9dbfb54285f8d",
      "transactionType": "CALL",
      "contractName": "MerchantContract",
      "contractAddress": "0xeade712c7b54399ca82b5abad26355327bb56fdc",
      "function": "createProduct(uint256,uint256,string)",
      "arguments": [
        "100000000000000000",
        "100",
        "Lavazza 2 Pack Crema E Gusto Ground Coffee 8.8oz/250g Each"
      ],
      "transaction": {
        "from": "0x0700cc6268c9f33c4328530b231271d7fbefb4fa",
        "to": "0xeade712c7b54399ca82b5abad26355327bb56fdc",
        "gas": "0x38ace",
        "value": "0x0",
        "input": "0x850a1003000000000000000000000000000000000000000000000000016345785d8a000000000000000000000000000000000000000000000000000000000000000000640000000000000000000000000000000000000000000000000000000000000060000000000000000000000000000000000000000000000000000000000000003a4c6176617a7a612032205061636b204372656d61204520477573746f2047726f756e6420436f6666656520382e386f7a2f323530672045616368000000000000",
        "nonce": "0x5",
        "chainId": "0x1404"
      },
      "additionalContracts": [],
      "isFixedGasLimit": false
    },
    {
      "hash": "0xa8aeb6d9d64112f45fddaf439308cfd913b44a0a4062efb42a9d1dddd1957dd9",
      "transactionType": "CALL",
      "contractName": "MerchantContract",
      "contractAddress": "0xeade712c7b54399ca82b5abad26355327bb56fdc",
      "function": "createProduct(uint256,uint256,string)",
      "arguments": [
        "200000000000000000",
        "2000",
        "Lavazza Costiera Gran Aroma Ground Coffee 12oz Bag"
      ],
      "transaction": {
        "from": "0x0700cc6268c9f33c4328530b231271d7fbefb4fa",
        "to": "0xeade712c7b54399ca82b5abad26355327bb56fdc",
        "gas": "0x328a2",
        "value": "0x0",
        "input": "0x850a100300000000000000000000000000000000000000000000000002c68af0bb14000000000000000000000000000000000000000000000000000000000000000007d0000000000000000000000000000000000000000000000000000000000000006000000000000000000000000000000000000000000000000000000000000000324c6176617a7a6120436f737469657261204772616e2041726f6d612047726f756e6420436f666665652031326f7a204261670000000000000000000000000000",
        "nonce": "0x6",
        "chainId": "0x1404"
      },
      "additionalContracts": [],
      "isFixedGasLimit": false
    },
    {
      "hash": "0x7f189ee863fb6c4fc510104ef15a8aa7799d5fffc94ce1f0929ae77921fe962f",
      "transactionType": "CALL",
      "contractName": "MerchantContract",
      "contractAddress": "0xeade712c7b54399ca82b5abad26355327bb56fdc",
      "function": "purchaseETH(uint256[],uint256[],uint256)",
      "arguments": [
        "[0, 1]",
        "[1, 1]",
        "0"
      ],
      "transaction": {
        "from": "0x0700cc6268c9f33c4328530b231271d7fbefb4fa",
        "to": "0xeade712c7b54399ca82b5abad26355327bb56fdc",
        "gas": "0x44964",
        "value": "0x429d069189e0000",
        "input": "0x58f7a76d000000000000000000000000000000000000000000000000000000000000006000000000000000000000000000000000000000000000000000000000000000c00000000000000000000000000000000000000000000000000000000000000000000000000000000000000000000000000000000000000000000000000000000200000000000000000000000000000000000000000000000000000000000000000000000000000000000000000000000000000000000000000000000000000001000000000000000000000000000000000000000000000000000000000000000200000000000000000000000000000000000000000000000000000000000000010000000000000000000000000000000000000000000000000000000000000001",
        "nonce": "0x7",
        "chainId": "0x1404"
      },
      "additionalContracts": [],
      "isFixedGasLimit": false
    }
  ],
  "receipts": [
    {
      "status": "0x1",
      "cumulativeGasUsed": "0x170adb",
      "logs": [
        {
          "address": "0x187397d17d970de9eb259cafc3f87a1106cd5a4a",
          "topics": [
            "0x937b50829c879b4023686954e9c2395cc202bb5c8fb8d41ae66d6f4742f4b05c"
          ],
          "data": "0x000000000000000000000000eade712c7b54399ca82b5abad26355327bb56fdc0000000000000000000000000700cc6268c9f33c4328530b231271d7fbefb4fa0000000000000000000000000000000000000000000000000000000000000060000000000000000000000000000000000000000000000000000000000000000b436f666665652053686f70000000000000000000000000000000000000000000",
          "blockHash": "0x329c001046bea4e2d6ddf843649579d75742ae0e158cfe32ffc5a87973d90e8d",
          "blockNumber": "0x29726",
          "blockTimestamp": "0x67b87a92",
          "transactionHash": "0x13f647715fb78f7f7cfac2820dec18b2de16915574f907e2a3324418c8b5d511",
          "transactionIndex": "0x0",
          "logIndex": "0x0",
          "removed": false
        }
      ],
      "logsBloom": "0x00000000000000000000000000000000000000000000000000000000000000000000000000000000000000000000000000000000400000000000000000002000000000000000000000000000000000000000000000000000000000000000000000000000000000000200000000000000000000000000000000000000000000000000000000000000000000000000000000000000000000000000000000000000000000000400000000000000000000000000000000000000000000000000000000000000000000000000000000000000000000000000000000000000000000004008000000000000000000000000000000000000000000000000000000000000",
      "type": "0x0",
      "transactionHash": "0x13f647715fb78f7f7cfac2820dec18b2de16915574f907e2a3324418c8b5d511",
      "transactionIndex": "0x0",
      "blockHash": "0x329c001046bea4e2d6ddf843649579d75742ae0e158cfe32ffc5a87973d90e8d",
      "blockNumber": "0x29726",
      "gasUsed": "0x170adb",
      "effectiveGasPrice": "0x3b9aca07",
      "from": "0x0700cc6268c9f33c4328530b231271d7fbefb4fa",
      "to": "0x187397d17d970de9eb259cafc3f87a1106cd5a4a",
      "contractAddress": null
    },
    {
      "status": "0x1",
      "cumulativeGasUsed": "0x1976e5",
      "logs": [],
      "logsBloom": "0x00000000000000000000000000000000000000000000000000000000000000000000000000000000000000000000000000000000000000000000000000000000000000000000000000000000000000000000000000000000000000000000000000000000000000000000000000000000000000000000000000000000000000000000000000000000000000000000000000000000000000000000000000000000000000000000000000000000000000000000000000000000000000000000000000000000000000000000000000000000000000000000000000000000000000000000000000000000000000000000000000000000000000000000000000000000",
      "type": "0x0",
      "transactionHash": "0x9b97b99f369bd404679e32e550878c4aabc780c7ab7d72a0f5b9dbfb54285f8d",
      "transactionIndex": "0x1",
      "blockHash": "0x329c001046bea4e2d6ddf843649579d75742ae0e158cfe32ffc5a87973d90e8d",
      "blockNumber": "0x29726",
      "gasUsed": "0x26c0a",
      "effectiveGasPrice": "0x3b9aca07",
      "from": "0x0700cc6268c9f33c4328530b231271d7fbefb4fa",
      "to": "0xeade712c7b54399ca82b5abad26355327bb56fdc",
      "contractAddress": null
    },
    {
      "status": "0x1",
      "cumulativeGasUsed": "0x1b9fcf",
      "logs": [],
      "logsBloom": "0x00000000000000000000000000000000000000000000000000000000000000000000000000000000000000000000000000000000000000000000000000000000000000000000000000000000000000000000000000000000000000000000000000000000000000000000000000000000000000000000000000000000000000000000000000000000000000000000000000000000000000000000000000000000000000000000000000000000000000000000000000000000000000000000000000000000000000000000000000000000000000000000000000000000000000000000000000000000000000000000000000000000000000000000000000000000",
      "type": "0x0",
      "transactionHash": "0xa8aeb6d9d64112f45fddaf439308cfd913b44a0a4062efb42a9d1dddd1957dd9",
      "transactionIndex": "0x2",
      "blockHash": "0x329c001046bea4e2d6ddf843649579d75742ae0e158cfe32ffc5a87973d90e8d",
      "blockNumber": "0x29726",
      "gasUsed": "0x228ea",
      "effectiveGasPrice": "0x3b9aca07",
      "from": "0x0700cc6268c9f33c4328530b231271d7fbefb4fa",
      "to": "0xeade712c7b54399ca82b5abad26355327bb56fdc",
      "contractAddress": null
    },
    {
      "status": "0x1",
      "cumulativeGasUsed": "0x1e8e2a",
      "logs": [],
      "logsBloom": "0x00000000000000000000000000000000000000000000000000000000000000000000000000000000000000000000000000000000000000000000000000000000000000000000000000000000000000000000000000000000000000000000000000000000000000000000000000000000000000000000000000000000000000000000000000000000000000000000000000000000000000000000000000000000000000000000000000000000000000000000000000000000000000000000000000000000000000000000000000000000000000000000000000000000000000000000000000000000000000000000000000000000000000000000000000000000",
      "type": "0x0",
      "transactionHash": "0x7f189ee863fb6c4fc510104ef15a8aa7799d5fffc94ce1f0929ae77921fe962f",
      "transactionIndex": "0x3",
      "blockHash": "0x329c001046bea4e2d6ddf843649579d75742ae0e158cfe32ffc5a87973d90e8d",
      "blockNumber": "0x29726",
      "gasUsed": "0x2ee5b",
      "effectiveGasPrice": "0x3b9aca07",
      "from": "0x0700cc6268c9f33c4328530b231271d7fbefb4fa",
      "to": "0xeade712c7b54399ca82b5abad26355327bb56fdc",
      "contractAddress": null
    }
  ],
  "libraries": [],
  "pending": [],
  "returns": {},
  "timestamp": 1740143247,
  "chain": 5124,
  "commit": "8de94ff"
}